{"project/contracts/PianoBattleLeaderboard.sol":{"PianoBattleLeaderboard":{"abi":[{"inputs":[],"stateMutability":"nonpayable","type":"constructor"},{"anonymous":false,"inputs":[{"indexed":true,"internalType":"address","name":"owner","type":"address"},{"indexed":false,"internalType":"uint256","name":"amount","type":"uint256"}],"name":"FeesWithdrawn","type":"event"},{"anonymous":false,"inputs":[{"indexed":true,"internalType":"address","name":"player","type":"address"},{"indexed":false,"internalType":"uint256","name":"score","type":"uint256"},{"indexed":false,"internalType":"uint256","name":"level","type":"uint256"},{"indexed":false,"internalType":"uint256","name":"correct","type":"uint256"},{"indexed":false,"internalType":"uint256","name":"timestamp","type":"uint256"}],"name":"ScoreSubmitted","type":"event"},{"inputs":[],"name":"SUBMIT_FEE","outputs":[{"internalType":"uint256","name":"","type":"uint256"}],"stateMutability":"view","type":"function"},{"inputs":[{"internalType":"address","name":"","type":"address"}],"name":"bestLevel","outputs":[{"internalType":"uint256","name":"","type":"uint256"}],"stateMutability":"view","type":"function"},{"inputs":[{"internalType":"address","name":"","type":"address"}],"name":"bestScore","outputs":[{"internalType":"uint256","name":"","type":"uint256"}],"stateMutability":"view","type":"function"},{"inputs":[{"internalType":"uint256","name":"index","type":"uint256"}],"name":"getLeaderboardEntry","outputs":[{"internalType":"address","name":"player","type":"address"},{"internalType":"uint256","name":"score","type":"uint256"},{"internalType":"uint256","name":"level","type":"uint256"},{"internalType":"uint256","name":"correct","type":"uint256"},{"internalType":"uint256","name":"timestamp","type":"uint256"}],"stateMutability":"view","type":"function"},{"inputs":[],"name":"getLeaderboardLength","outputs":[{"internalType":"uint256","name":"","type":"uint256"}],"stateMutability":"view","type":"function"},{"inputs":[{"internalType":"uint256","name":"limit","type":"uint256"}],"name":"getRecentScores","outputs":[{"components":[{"internalType":"address","name":"player","type":"address"},{"internalType":"uint256","name":"score","type":"uint256"},{"internalType":"uint256","name":"level","type":"uint256"},{"internalType":"uint256","name":"correct","type":"uint256"},{"internalType":"uint256","name":"timestamp","type":"uint256"}],"internalType":"struct PianoBattleLeaderboard.ScoreEntry[]","name":"","type":"tuple[]"}],"stateMutability":"view","type":"function"},{"inputs":[],"name":"owner","outputs":[{"internalType":"address","name":"","type":"address"}],"stateMutability":"view","type":"function"},{"inputs":[{"internalType":"uint256","name":"score","type":"uint256"},{"internalType":"uint256","name":"level","type":"uint256"},{"internalType":"uint256","name":"correct","type":"uint256"}],"name":"submitScore","outputs":[],"stateMutability":"payable","type":"function"},{"inputs":[{"internalType":"address","name":"","type":"address"}],"name":"totalSubmissions","outputs":[{"internalType":"uint256","name":"","type":"uint256"}],"stateMutability":"view","type":"function"},{"inputs":[],"name":"withdrawFees","outputs":[],"stateMutability":"nonpayable","type":"function"}],"evm":{"bytecode":{"linkReferences":{},"object":"608060405234801561000f575f80fd5b50335f806101000a81548173ffffffffffffffffffffffffffffffffffffffff021916908373ffffffffffffffffffffffffffffffffffffffff1602179055506112538061005c5f395ff3fe608060405260043610610090575f3560e01c8063a83780d811610058578063a83780d81461017a578063ab486607146101b6578063cc119a91146101e0578063dc0c695f1461021c578063ef2c25a41461025857610090565b8063242bb9fc146100945780633bb45586146100d4578063476343ee146100fe5780636af96877146101145780638da5cb5b14610150575b5f80fd5b34801561009f575f80fd5b506100ba60048036038101906100b59190610af2565b610274565b6040516100cb959493929190610b6b565b60405180910390f35b3480156100df575f80fd5b506100e8610396565b6040516100f59190610bbc565b60405180910390f35b348015610109575f80fd5b506101126103a0565b005b34801561011f575f80fd5b5061013a60048036038101906101359190610bff565b610546565b6040516101479190610bbc565b60405180910390f35b34801561015b575f80fd5b5061016461055b565b6040516101719190610c2a565b60405180910390f35b348015610185575f80fd5b506101a0600480360381019061019b9190610af2565b61057e565b6040516101ad9190610d6f565b60405180910390f35b3480156101c1575f80fd5b506101ca6106ea565b6040516101d79190610bbc565b60405180910390f35b3480156101eb575f80fd5b5061020660048036038101906102019190610bff565b6106f6565b6040516102139190610bbc565b60405180910390f35b348015610227575f80fd5b50610242600480360381019061023d9190610bff565b61070b565b60405161024f9190610bbc565b60405180910390f35b610272600480360381019061026d9190610d8f565b610720565b005b5f805f805f60018054905086106102c0576040517f08c379a00000000000000000000000000000000000000000000000000000000081526004016102b790610e39565b60405180910390fd5b5f600187815481106102d5576102d4610e57565b5b905f5260205f2090600502016040518060a00160405290815f82015f9054906101000a900473ffffffffffffffffffffffffffffffffffffffff1673ffffffffffffffffffffffffffffffffffffffff1673ffffffffffffffffffffffffffffffffffffffff1681526020016001820154815260200160028201548152602001600382015481526020016004820154815250509050805f01518160200151826040015183606001518460800151955095509550955095505091939590929450565b655af3107a400081565b5f8054906101000a900473ffffffffffffffffffffffffffffffffffffffff1673ffffffffffffffffffffffffffffffffffffffff163373ffffffffffffffffffffffffffffffffffffffff161461042d576040517f08c379a000000000000000000000000000000000000000000000000000000000815260040161042490610ece565b60405180910390fd5b5f4790505f8111610473576040517f08c379a000000000000000000000000000000000000000000000000000000000815260040161046a90610f36565b60405180910390fd5b5f8054906101000a900473ffffffffffffffffffffffffffffffffffffffff1673ffffffffffffffffffffffffffffffffffffffff166108fc8290811502906040515f60405180830381858888f193505050501580156104d5573d5f803e3d5ffd5b505f8054906101000a900473ffffffffffffffffffffffffffffffffffffffff1673ffffffffffffffffffffffffffffffffffffffff167fc0819c13be868895eb93e40eaceb96de976442fa1d404e5c55f14bb65a8c489a8260405161053b9190610bbc565b60405180910390a250565b6004602052805f5260405f205f915090505481565b5f8054906101000a900473ffffffffffffffffffffffffffffffffffffffff1681565b60605f600180549050905080831115610595578092505b5f8367ffffffffffffffff8111156105b0576105af610f54565b5b6040519080825280602002602001820160405280156105e957816020015b6105d6610a7b565b8152602001906001900390816105ce5790505b5090505f5b848110156106df576001816001856106069190610fae565b6106109190610fae565b8154811061062157610620610e57565b5b905f5260205f2090600502016040518060a00160405290815f82015f9054906101000a900473ffffffffffffffffffffffffffffffffffffffff1673ffffffffffffffffffffffffffffffffffffffff1673ffffffffffffffffffffffffffffffffffffffff1681526020016001820154815260200160028201548152602001600382015481526020016004820154815250508282815181106106c7576106c6610e57565b5b602002602001018190525080806001019150506105ee565b508092505050919050565b5f600180549050905090565b6003602052805f5260405f205f915090505481565b6002602052805f5260405f205f915090505481565b655af3107a4000341015610769576040517f08c379a00000000000000000000000000000000000000000000000000000000081526004016107609061102b565b60405180910390fd5b5f83116107ab576040517f08c379a00000000000000000000000000000000000000000000000000000000081526004016107a290611093565b60405180910390fd5b5f82116107ed576040517f08c379a00000000000000000000000000000000000000000000000000000000081526004016107e4906110fb565b60405180910390fd5b600a811115610831576040517f08c379a000000000000000000000000000000000000000000000000000000000815260040161082890611189565b60405180910390fd5b60016040518060a001604052803373ffffffffffffffffffffffffffffffffffffffff16815260200185815260200184815260200183815260200142815250908060018154018082558091505060019003905f5260205f2090600502015f909190919091505f820151815f015f6101000a81548173ffffffffffffffffffffffffffffffffffffffff021916908373ffffffffffffffffffffffffffffffffffffffff160217905550602082015181600101556040820151816002015560608201518160030155608082015181600401555050600160045f3373ffffffffffffffffffffffffffffffffffffffff1673ffffffffffffffffffffffffffffffffffffffff1681526020019081526020015f205f82825461095191906111a7565b9250508190555060025f3373ffffffffffffffffffffffffffffffffffffffff1673ffffffffffffffffffffffffffffffffffffffff1681526020019081526020015f2054831115610a22578260025f3373ffffffffffffffffffffffffffffffffffffffff1673ffffffffffffffffffffffffffffffffffffffff1681526020019081526020015f20819055508160035f3373ffffffffffffffffffffffffffffffffffffffff1673ffffffffffffffffffffffffffffffffffffffff1681526020019081526020015f20819055505b3373ffffffffffffffffffffffffffffffffffffffff167f04f4c0f5a4a2f0a08f6e3b4fd6a5abaa7af15961534922311add59aeef2e1d9284848442604051610a6e94939291906111da565b60405180910390a2505050565b6040518060a001604052805f73ffffffffffffffffffffffffffffffffffffffff1681526020015f81526020015f81526020015f81526020015f81525090565b5f80fd5b5f819050919050565b610ad181610abf565b8114610adb575f80fd5b50565b5f81359050610aec81610ac8565b92915050565b5f60208284031215610b0757610b06610abb565b5b5f610b1484828501610ade565b91505092915050565b5f73ffffffffffffffffffffffffffffffffffffffff82169050919050565b5f610b4682610b1d565b9050919050565b610b5681610b3c565b82525050565b610b6581610abf565b82525050565b5f60a082019050610b7e5f830188610b4d565b610b8b6020830187610b5c565b610b986040830186610b5c565b610ba56060830185610b5c565b610bb26080830184610b5c565b9695505050505050565b5f602082019050610bcf5f830184610b5c565b92915050565b610bde81610b3c565b8114610be8575f80fd5b50565b5f81359050610bf981610bd5565b92915050565b5f60208284031215610c1457610c13610abb565b5b5f610c2184828501610beb565b91505092915050565b5f602082019050610c3d5f830184610b4d565b92915050565b5f81519050919050565b5f82825260208201905092915050565b5f819050602082019050919050565b610c7581610b3c565b82525050565b610c8481610abf565b82525050565b60a082015f820151610c9e5f850182610c6c565b506020820151610cb16020850182610c7b565b506040820151610cc46040850182610c7b565b506060820151610cd76060850182610c7b565b506080820151610cea6080850182610c7b565b50505050565b5f610cfb8383610c8a565b60a08301905092915050565b5f602082019050919050565b5f610d1d82610c43565b610d278185610c4d565b9350610d3283610c5d565b805f5b83811015610d62578151610d498882610cf0565b9750610d5483610d07565b925050600181019050610d35565b5085935050505092915050565b5f6020820190508181035f830152610d878184610d13565b905092915050565b5f805f60608486031215610da657610da5610abb565b5b5f610db386828701610ade565b9350506020610dc486828701610ade565b9250506040610dd586828701610ade565b9150509250925092565b5f82825260208201905092915050565b7f496e76616c696420696e646578000000000000000000000000000000000000005f82015250565b5f610e23600d83610ddf565b9150610e2e82610def565b602082019050919050565b5f6020820190508181035f830152610e5081610e17565b9050919050565b7f4e487b71000000000000000000000000000000000000000000000000000000005f52603260045260245ffd5b7f4f6e6c79206f776e65722063616e2077697468647261770000000000000000005f82015250565b5f610eb8601783610ddf565b9150610ec382610e84565b602082019050919050565b5f6020820190508181035f830152610ee581610eac565b9050919050565b7f4e6f206665657320746f207769746864726177000000000000000000000000005f82015250565b5f610f20601383610ddf565b9150610f2b82610eec565b602082019050919050565b5f6020820190508181035f830152610f4d81610f14565b9050919050565b7f4e487b71000000000000000000000000000000000000000000000000000000005f52604160045260245ffd5b7f4e487b71000000000000000000000000000000000000000000000000000000005f52601160045260245ffd5b5f610fb882610abf565b9150610fc383610abf565b9250828203905081811115610fdb57610fda610f81565b5b92915050565b7f5375626d69742066656520697320302e303030312052495455414c00000000005f82015250565b5f611015601b83610ddf565b915061102082610fe1565b602082019050919050565b5f6020820190508181035f83015261104281611009565b9050919050565b7f53636f7265206d7573742062652067726561746572207468616e2030000000005f82015250565b5f61107d601c83610ddf565b915061108882611049565b602082019050919050565b5f6020820190508181035f8301526110aa81611071565b9050919050565b7f4c6576656c206d7573742062652067726561746572207468616e2030000000005f82015250565b5f6110e5601c83610ddf565b91506110f0826110b1565b602082019050919050565b5f6020820190508181035f830152611112816110d9565b9050919050565b7f436f727265637420636f756e74206d7573742062652066726f6d203020746f205f8201527f3130000000000000000000000000000000000000000000000000000000000000602082015250565b5f611173602283610ddf565b915061117e82611119565b604082019050919050565b5f6020820190508181035f8301526111a081611167565b9050919050565b5f6111b182610abf565b91506111bc83610abf565b92508282019050808211156111d4576111d3610f81565b5b92915050565b5f6080820190506111ed5f830187610b5c565b6111fa6020830186610b5c565b6112076040830185610b5c565b6112146060830184610b5c565b9594505050505056fea2646970667358221220bdab8188e017ef6ed1b14f099808e13a68d5dc1b2bd50fcd02b5d7f51c03183164736f6c63430008180033","opcodes":"PUSH1 0x80 PUSH1 0x40 MSTORE CALLVALUE DUP1 ISZERO PUSH2 0xF JUMPI PUSH0 DUP1 REVERT JUMPDEST POP CALLER PUSH0 DUP1 PUSH2 0x100 EXP DUP2 SLOAD DUP2 PUSH20 0xFFFFFFFFFFFFFFFFFFFFFFFFFFFFFFFFFFFFFFFF MUL NOT AND SWAP1 DUP4 PUSH20 0xFFFFFFFFFFFFFFFFFFFFFFFFFFFFFFFFFFFFFFFF AND MUL OR SWAP1 SSTORE POP PUSH2 0x1253 DUP1 PUSH2 0x5C PUSH0 CODECOPY PUSH0 RETURN INVALID PUSH1 0x80 PUSH1 0x40 MSTORE PUSH1 0x4 CALLDATASIZE LT PUSH2 0x90 JUMPI PUSH0 CALLDATALOAD PUSH1 0xE0 SHR DUP1 PUSH4 0xA83780D8 GT PUSH2 0x58 JUMPI DUP1 PUSH4 0xA83780D8 EQ PUSH2 0x17A JUMPI DUP1 PUSH4 0xAB486607 EQ PUSH2 0x1B6 JUMPI DUP1 PUSH4 0xCC119A91 EQ PUSH2 0x1E0 JUMPI DUP1 PUSH4 0xDC0C695F EQ PUSH2 0x21C JUMPI DUP1 PUSH4 0xEF2C25A4 EQ PUSH2 0x258 JUMPI PUSH2 0x90 JUMP JUMPDEST DUP1 PUSH4 0x242BB9FC EQ PUSH2 0x94 JUMPI DUP1 PUSH4 0x3BB45586 EQ PUSH2 0xD4 JUMPI DUP1 PUSH4 0x476343EE EQ PUSH2 0xFE JUMPI DUP1 PUSH4 0x6AF96877 EQ PUSH2 0x114 JUMPI DUP1 PUSH4 0x8DA5CB5B EQ PUSH2 0x150 JUMPI JUMPDEST PUSH0 DUP1 REVERT JUMPDEST CALLVALUE DUP1 ISZERO PUSH2 0x9F JUMPI PUSH0 DUP1 REVERT JUMPDEST POP PUSH2 0xBA PUSH1 0x4 DUP1 CALLDATASIZE SUB DUP2 ADD SWAP1 PUSH2 0xB5 SWAP2 SWAP1 PUSH2 0xAF2 JUMP JUMPDEST PUSH2 0x274 JUMP JUMPDEST PUSH1 0x40 MLOAD PUSH2 0xCB SWAP6 SWAP5 SWAP4 SWAP3 SWAP2 SWAP1 PUSH2 0xB6B JUMP JUMPDEST PUSH1 0x40 MLOAD DUP1 SWAP2 SUB SWAP1 RETURN JUMPDEST CALLVALUE DUP1 ISZERO PUSH2 0xDF JUMPI PUSH0 DUP1 REVERT JUMPDEST POP PUSH2 0xE8 PUSH2 0x396 JUMP JUMPDEST PUSH1 0x40 MLOAD PUSH2 0xF5 SWAP2 SWAP1 PUSH2 0xBBC JUMP JUMPDEST PUSH1 0x40 MLOAD DUP1 SWAP2 SUB SWAP1 RETURN JUMPDEST CALLVALUE DUP1 ISZERO PUSH2 0x109 JUMPI PUSH0 DUP1 REVERT JUMPDEST POP PUSH2 0x112 PUSH2 0x3A0 JUMP JUMPDEST STOP JUMPDEST CALLVALUE DUP1 ISZERO PUSH2 0x11F JUMPI PUSH0 DUP1 REVERT JUMPDEST POP PUSH2 0x13A PUSH1 0x4 DUP1 CALLDATASIZE SUB DUP2 ADD SWAP1 PUSH2 0x135 SWAP2 SWAP1 PUSH2 0xBFF JUMP JUMPDEST PUSH2 0x546 JUMP JUMPDEST PUSH1 0x40 MLOAD PUSH2 0x147 SWAP2 SWAP1 PUSH2 0xBBC JUMP JUMPDEST PUSH1 0x40 MLOAD DUP1 SWAP2 SUB SWAP1 RETURN JUMPDEST CALLVALUE DUP1 ISZERO PUSH2 0x15B JUMPI PUSH0 DUP1 REVERT JUMPDEST POP PUSH2 0x164 PUSH2 0x55B JUMP JUMPDEST PUSH1 0x40 MLOAD PUSH2 0x171 SWAP2 SWAP1 PUSH2 0xC2A JUMP JUMPDEST PUSH1 0x40 MLOAD DUP1 SWAP2 SUB SWAP1 RETURN JUMPDEST CALLVALUE DUP1 ISZERO PUSH2 0x185 JUMPI PUSH0 DUP1 REVERT JUMPDEST POP PUSH2 0x1A0 PUSH1 0x4 DUP1 CALLDATASIZE SUB DUP2 ADD SWAP1 PUSH2 0x19B SWAP2 SWAP1 PUSH2 0xAF2 JUMP JUMPDEST PUSH2 0x57E JUMP JUMPDEST PUSH1 0x40 MLOAD PUSH2 0x1AD SWAP2 SWAP1 PUSH2 0xD6F JUMP JUMPDEST PUSH1 0x40 MLOAD DUP1 SWAP2 SUB SWAP1 RETURN JUMPDEST CALLVALUE DUP1 ISZERO PUSH2 0x1C1 JUMPI PUSH0 DUP1 REVERT JUMPDEST POP PUSH2 0x1CA PUSH2 0x6EA JUMP JUMPDEST PUSH1 0x40 MLOAD PUSH2 0x1D7 SWAP2 SWAP1 PUSH2 0xBBC JUMP JUMPDEST PUSH1 0x40 MLOAD DUP1 SWAP2 SUB SWAP1 RETURN JUMPDEST CALLVALUE DUP1 ISZERO PUSH2 0x1EB JUMPI PUSH0 DUP1 REVERT JUMPDEST POP PUSH2 0x206 PUSH1 0x4 DUP1 CALLDATASIZE SUB DUP2 ADD SWAP1 PUSH2 0x201 SWAP2 SWAP1 PUSH2 0xBFF JUMP JUMPDEST PUSH2 0x6F6 JUMP JUMPDEST PUSH1 0x40 MLOAD PUSH2 0x213 SWAP2 SWAP1 PUSH2 0xBBC JUMP JUMPDEST PUSH1 0x40 MLOAD DUP1 SWAP2 SUB SWAP1 RETURN JUMPDEST CALLVALUE DUP1 ISZERO PUSH2 0x227 JUMPI PUSH0 DUP1 REVERT JUMPDEST POP PUSH2 0x242 PUSH1 0x4 DUP1 CALLDATASIZE SUB DUP2 ADD SWAP1 PUSH2 0x23D SWAP2 SWAP1 PUSH2 0xBFF JUMP JUMPDEST PUSH2 0x70B JUMP JUMPDEST PUSH1 0x40 MLOAD PUSH2 0x24F SWAP2 SWAP1 PUSH2 0xBBC JUMP JUMPDEST PUSH1 0x40 MLOAD DUP1 SWAP2 SUB SWAP1 RETURN JUMPDEST PUSH2 0x272 PUSH1 0x4 DUP1 CALLDATASIZE SUB DUP2 ADD SWAP1 PUSH2 0x26D SWAP2 SWAP1 PUSH2 0xD8F JUMP JUMPDEST PUSH2 0x720 JUMP JUMPDEST STOP JUMPDEST PUSH0 DUP1 PUSH0 DUP1 PUSH0 PUSH1 0x1 DUP1 SLOAD SWAP1 POP DUP7 LT PUSH2 0x2C0 JUMPI PUSH1 0x40 MLOAD PUSH32 0x8C379A000000000000000000000000000000000000000000000000000000000 DUP2 MSTORE PUSH1 0x4 ADD PUSH2 0x2B7 SWAP1 PUSH2 0xE39 JUMP JUMPDEST PUSH1 0x40 MLOAD DUP1 SWAP2 SUB SWAP1 REVERT JUMPDEST PUSH0 PUSH1 0x1 DUP8 DUP2 SLOAD DUP2 LT PUSH2 0x2D5 JUMPI PUSH2 0x2D4 PUSH2 0xE57 JUMP JUMPDEST JUMPDEST SWAP1 PUSH0 MSTORE PUSH1 0x20 PUSH0 KECCAK256 SWAP1 PUSH1 0x5 MUL ADD PUSH1 0x40 MLOAD DUP1 PUSH1 0xA0 ADD PUSH1 0x40 MSTORE SWAP1 DUP2 PUSH0 DUP3 ADD PUSH0 SWAP1 SLOAD SWAP1 PUSH2 0x100 EXP SWAP1 DIV PUSH20 0xFFFFFFFFFFFFFFFFFFFFFFFFFFFFFFFFFFFFFFFF AND PUSH20 0xFFFFFFFFFFFFFFFFFFFFFFFFFFFFFFFFFFFFFFFF AND PUSH20 0xFFFFFFFFFFFFFFFFFFFFFFFFFFFFFFFFFFFFFFFF AND DUP2 MSTORE PUSH1 0x20 ADD PUSH1 0x1 DUP3 ADD SLOAD DUP2 MSTORE PUSH1 0x20 ADD PUSH1 0x2 DUP3 ADD SLOAD DUP2 MSTORE PUSH1 0x20 ADD PUSH1 0x3 DUP3 ADD SLOAD DUP2 MSTORE PUSH1 0x20 ADD PUSH1 0x4 DUP3 ADD SLOAD DUP2 MSTORE POP POP SWAP1 POP DUP1 PUSH0 ADD MLOAD DUP2 PUSH1 0x20 ADD MLOAD DUP3 PUSH1 0x40 ADD MLOAD DUP4 PUSH1 0x60 ADD MLOAD DUP5 PUSH1 0x80 ADD MLOAD SWAP6 POP SWAP6 POP SWAP6 POP SWAP6 POP SWAP6 POP POP SWAP2 SWAP4 SWAP6 SWAP1 SWAP3 SWAP5 POP JUMP JUMPDEST PUSH6 0x5AF3107A4000 DUP2 JUMP JUMPDEST PUSH0 DUP1 SLOAD SWAP1 PUSH2 0x100 EXP SWAP1 DIV PUSH20 0xFFFFFFFFFFFFFFFFFFFFFFFFFFFFFFFFFFFFFFFF AND PUSH20 0xFFFFFFFFFFFFFFFFFFFFFFFFFFFFFFFFFFFFFFFF AND CALLER PUSH20 0xFFFFFFFFFFFFFFFFFFFFFFFFFFFFFFFFFFFFFFFF AND EQ PUSH2 0x42D JUMPI PUSH1 0x40 MLOAD PUSH32 0x8C379A000000000000000000000000000000000000000000000000000000000 DUP2 MSTORE PUSH1 0x4 ADD PUSH2 0x424 SWAP1 PUSH2 0xECE JUMP JUMPDEST PUSH1 0x40 MLOAD DUP1 SWAP2 SUB SWAP1 REVERT JUMPDEST PUSH0 SELFBALANCE SWAP1 POP PUSH0 DUP2 GT PUSH2 0x473 JUMPI PUSH1 0x40 MLOAD PUSH32 0x8C379A000000000000000000000000000000000000000000000000000000000 DUP2 MSTORE PUSH1 0x4 ADD PUSH2 0x46A SWAP1 PUSH2 0xF36 JUMP JUMPDEST PUSH1 0x40 MLOAD DUP1 SWAP2 SUB SWAP1 REVERT JUMPDEST PUSH0 DUP1 SLOAD SWAP1 PUSH2 0x100 EXP SWAP1 DIV PUSH20 0xFFFFFFFFFFFFFFFFFFFFFFFFFFFFFFFFFFFFFFFF AND PUSH20 0xFFFFFFFFFFFFFFFFFFFFFFFFFFFFFFFFFFFFFFFF AND PUSH2 0x8FC DUP3 SWAP1 DUP2 ISZERO MUL SWAP1 PUSH1 0x40 MLOAD PUSH0 PUSH1 0x40 MLOAD DUP1 DUP4 SUB DUP2 DUP6 DUP9 DUP9 CALL SWAP4 POP POP POP POP ISZERO DUP1 ISZERO PUSH2 0x4D5 JUMPI RETURNDATASIZE PUSH0 DUP1 RETURNDATACOPY RETURNDATASIZE PUSH0 REVERT JUMPDEST POP PUSH0 DUP1 SLOAD SWAP1 PUSH2 0x100 EXP SWAP1 DIV PUSH20 0xFFFFFFFFFFFFFFFFFFFFFFFFFFFFFFFFFFFFFFFF AND PUSH20 0xFFFFFFFFFFFFFFFFFFFFFFFFFFFFFFFFFFFFFFFF AND PUSH32 0xC0819C13BE868895EB93E40EACEB96DE976442FA1D404E5C55F14BB65A8C489A DUP3 PUSH1 0x40 MLOAD PUSH2 0x53B SWAP2 SWAP1 PUSH2 0xBBC JUMP JUMPDEST PUSH1 0x40 MLOAD DUP1 SWAP2 SUB SWAP1 LOG2 POP JUMP JUMPDEST PUSH1 0x4 PUSH1 0x20 MSTORE DUP1 PUSH0 MSTORE PUSH1 0x40 PUSH0 KECCAK256 PUSH0 SWAP2 POP SWAP1 POP SLOAD DUP2 JUMP JUMPDEST PUSH0 DUP1 SLOAD SWAP1 PUSH2 0x100 EXP SWAP1 DIV PUSH20 0xFFFFFFFFFFFFFFFFFFFFFFFFFFFFFFFFFFFFFFFF AND DUP2 JUMP JUMPDEST PUSH1 0x60 PUSH0 PUSH1 0x1 DUP1 SLOAD SWAP1 POP SWAP1 POP DUP1 DUP4 GT ISZERO PUSH2 0x595 JUMPI DUP1 SWAP3 POP JUMPDEST PUSH0 DUP4 PUSH8 0xFFFFFFFFFFFFFFFF DUP2 GT ISZERO PUSH2 0x5B0 JUMPI PUSH2 0x5AF PUSH2 0xF54 JUMP JUMPDEST JUMPDEST PUSH1 0x40 MLOAD SWAP1 DUP1 DUP3 MSTORE DUP1 PUSH1 0x20 MUL PUSH1 0x20 ADD DUP3 ADD PUSH1 0x40 MSTORE DUP1 ISZERO PUSH2 0x5E9 JUMPI DUP2 PUSH1 0x20 ADD JUMPDEST PUSH2 0x5D6 PUSH2 0xA7B JUMP JUMPDEST DUP2 MSTORE PUSH1 0x20 ADD SWAP1 PUSH1 0x1 SWAP1 SUB SWAP1 DUP2 PUSH2 0x5CE JUMPI SWAP1 POP JUMPDEST POP SWAP1 POP PUSH0 JUMPDEST DUP5 DUP2 LT ISZERO PUSH2 0x6DF JUMPI PUSH1 0x1 DUP2 PUSH1 0x1 DUP6 PUSH2 0x606 SWAP2 SWAP1 PUSH2 0xFAE JUMP JUMPDEST PUSH2 0x610 SWAP2 SWAP1 PUSH2 0xFAE JUMP JUMPDEST DUP2 SLOAD DUP2 LT PUSH2 0x621 JUMPI PUSH2 0x620 PUSH2 0xE57 JUMP JUMPDEST JUMPDEST SWAP1 PUSH0 MSTORE PUSH1 0x20 PUSH0 KECCAK256 SWAP1 PUSH1 0x5 MUL ADD PUSH1 0x40 MLOAD DUP1 PUSH1 0xA0 ADD PUSH1 0x40 MSTORE SWAP1 DUP2 PUSH0 DUP3 ADD PUSH0 SWAP1 SLOAD SWAP1 PUSH2 0x100 EXP SWAP1 DIV PUSH20 0xFFFFFFFFFFFFFFFFFFFFFFFFFFFFFFFFFFFFFFFF AND PUSH20 0xFFFFFFFFFFFFFFFFFFFFFFFFFFFFFFFFFFFFFFFF AND PUSH20 0xFFFFFFFFFFFFFFFFFFFFFFFFFFFFFFFFFFFFFFFF AND DUP2 MSTORE PUSH1 0x20 ADD PUSH1 0x1 DUP3 ADD SLOAD DUP2 MSTORE PUSH1 0x20 ADD PUSH1 0x2 DUP3 ADD SLOAD DUP2 MSTORE PUSH1 0x20 ADD PUSH1 0x3 DUP3 ADD SLOAD DUP2 MSTORE PUSH1 0x20 ADD PUSH1 0x4 DUP3 ADD SLOAD DUP2 MSTORE POP POP DUP3 DUP3 DUP2 MLOAD DUP2 LT PUSH2 0x6C7 JUMPI PUSH2 0x6C6 PUSH2 0xE57 JUMP JUMPDEST JUMPDEST PUSH1 0x20 MUL PUSH1 0x20 ADD ADD DUP2 SWAP1 MSTORE POP DUP1 DUP1 PUSH1 0x1 ADD SWAP2 POP POP PUSH2 0x5EE JUMP JUMPDEST POP DUP1 SWAP3 POP POP POP SWAP2 SWAP1 POP JUMP JUMPDEST PUSH0 PUSH1 0x1 DUP1 SLOAD SWAP1 POP SWAP1 POP SWAP1 JUMP JUMPDEST PUSH1 0x3 PUSH1 0x20 MSTORE DUP1 PUSH0 MSTORE PUSH1 0x40 PUSH0 KECCAK256 PUSH0 SWAP2 POP SWAP1 POP SLOAD DUP2 JUMP JUMPDEST PUSH1 0x2 PUSH1 0x20 MSTORE DUP1 PUSH0 MSTORE PUSH1 0x40 PUSH0 KECCAK256 PUSH0 SWAP2 POP SWAP1 POP SLOAD DUP2 JUMP JUMPDEST PUSH6 0x5AF3107A4000 CALLVALUE LT ISZERO PUSH2 0x769 JUMPI PUSH1 0x40 MLOAD PUSH32 0x8C379A000000000000000000000000000000000000000000000000000000000 DUP2 MSTORE PUSH1 0x4 ADD PUSH2 0x760 SWAP1 PUSH2 0x102B JUMP JUMPDEST PUSH1 0x40 MLOAD DUP1 SWAP2 SUB SWAP1 REVERT JUMPDEST PUSH0 DUP4 GT PUSH2 0x7AB JUMPI PUSH1 0x40 MLOAD PUSH32 0x8C379A000000000000000000000000000000000000000000000000000000000 DUP2 MSTORE PUSH1 0x4 ADD PUSH2 0x7A2 SWAP1 PUSH2 0x1093 JUMP JUMPDEST PUSH1 0x40 MLOAD DUP1 SWAP2 SUB SWAP1 REVERT JUMPDEST PUSH0 DUP3 GT PUSH2 0x7ED JUMPI PUSH1 0x40 MLOAD PUSH32 0x8C379A000000000000000000000000000000000000000000000000000000000 DUP2 MSTORE PUSH1 0x4 ADD PUSH2 0x7E4 SWAP1 PUSH2 0x10FB JUMP JUMPDEST PUSH1 0x40 MLOAD DUP1 SWAP2 SUB SWAP1 REVERT JUMPDEST PUSH1 0xA DUP2 GT ISZERO PUSH2 0x831 JUMPI PUSH1 0x40 MLOAD PUSH32 0x8C379A000000000000000000000000000000000000000000000000000000000 DUP2 MSTORE PUSH1 0x4 ADD PUSH2 0x828 SWAP1 PUSH2 0x1189 JUMP JUMPDEST PUSH1 0x40 MLOAD DUP1 SWAP2 SUB SWAP1 REVERT JUMPDEST PUSH1 0x1 PUSH1 0x40 MLOAD DUP1 PUSH1 0xA0 ADD PUSH1 0x40 MSTORE DUP1 CALLER PUSH20 0xFFFFFFFFFFFFFFFFFFFFFFFFFFFFFFFFFFFFFFFF AND DUP2 MSTORE PUSH1 0x20 ADD DUP6 DUP2 MSTORE PUSH1 0x20 ADD DUP5 DUP2 MSTORE PUSH1 0x20 ADD DUP4 DUP2 MSTORE PUSH1 0x20 ADD TIMESTAMP DUP2 MSTORE POP SWAP1 DUP1 PUSH1 0x1 DUP2 SLOAD ADD DUP1 DUP3 SSTORE DUP1 SWAP2 POP POP PUSH1 0x1 SWAP1 SUB SWAP1 PUSH0 MSTORE PUSH1 0x20 PUSH0 KECCAK256 SWAP1 PUSH1 0x5 MUL ADD PUSH0 SWAP1 SWAP2 SWAP1 SWAP2 SWAP1 SWAP2 POP PUSH0 DUP3 ADD MLOAD DUP2 PUSH0 ADD PUSH0 PUSH2 0x100 EXP DUP2 SLOAD DUP2 PUSH20 0xFFFFFFFFFFFFFFFFFFFFFFFFFFFFFFFFFFFFFFFF MUL NOT AND SWAP1 DUP4 PUSH20 0xFFFFFFFFFFFFFFFFFFFFFFFFFFFFFFFFFFFFFFFF AND MUL OR SWAP1 SSTORE POP PUSH1 0x20 DUP3 ADD MLOAD DUP2 PUSH1 0x1 ADD SSTORE PUSH1 0x40 DUP3 ADD MLOAD DUP2 PUSH1 0x2 ADD SSTORE PUSH1 0x60 DUP3 ADD MLOAD DUP2 PUSH1 0x3 ADD SSTORE PUSH1 0x80 DUP3 ADD MLOAD DUP2 PUSH1 0x4 ADD SSTORE POP POP PUSH1 0x1 PUSH1 0x4 PUSH0 CALLER PUSH20 0xFFFFFFFFFFFFFFFFFFFFFFFFFFFFFFFFFFFFFFFF AND PUSH20 0xFFFFFFFFFFFFFFFFFFFFFFFFFFFFFFFFFFFFFFFF AND DUP2 MSTORE PUSH1 0x20 ADD SWAP1 DUP2 MSTORE PUSH1 0x20 ADD PUSH0 KECCAK256 PUSH0 DUP3 DUP3 SLOAD PUSH2 0x951 SWAP2 SWAP1 PUSH2 0x11A7 JUMP JUMPDEST SWAP3 POP POP DUP2 SWAP1 SSTORE POP PUSH1 0x2 PUSH0 CALLER PUSH20 0xFFFFFFFFFFFFFFFFFFFFFFFFFFFFFFFFFFFFFFFF AND PUSH20 0xFFFFFFFFFFFFFFFFFFFFFFFFFFFFFFFFFFFFFFFF AND DUP2 MSTORE PUSH1 0x20 ADD SWAP1 DUP2 MSTORE PUSH1 0x20 ADD PUSH0 KECCAK256 SLOAD DUP4 GT ISZERO PUSH2 0xA22 JUMPI DUP3 PUSH1 0x2 PUSH0 CALLER PUSH20 0xFFFFFFFFFFFFFFFFFFFFFFFFFFFFFFFFFFFFFFFF AND PUSH20 0xFFFFFFFFFFFFFFFFFFFFFFFFFFFFFFFFFFFFFFFF AND DUP2 MSTORE PUSH1 0x20 ADD SWAP1 DUP2 MSTORE PUSH1 0x20 ADD PUSH0 KECCAK256 DUP2 SWAP1 SSTORE POP DUP2 PUSH1 0x3 PUSH0 CALLER PUSH20 0xFFFFFFFFFFFFFFFFFFFFFFFFFFFFFFFFFFFFFFFF AND PUSH20 0xFFFFFFFFFFFFFFFFFFFFFFFFFFFFFFFFFFFFFFFF AND DUP2 MSTORE PUSH1 0x20 ADD SWAP1 DUP2 MSTORE PUSH1 0x20 ADD PUSH0 KECCAK256 DUP2 SWAP1 SSTORE POP JUMPDEST CALLER PUSH20 0xFFFFFFFFFFFFFFFFFFFFFFFFFFFFFFFFFFFFFFFF AND PUSH32 0x4F4C0F5A4A2F0A08F6E3B4FD6A5ABAA7AF15961534922311ADD59AEEF2E1D92 DUP5 DUP5 DUP5 TIMESTAMP PUSH1 0x40 MLOAD PUSH2 0xA6E SWAP5 SWAP4 SWAP3 SWAP2 SWAP1 PUSH2 0x11DA JUMP JUMPDEST PUSH1 0x40 MLOAD DUP1 SWAP2 SUB SWAP1 LOG2 POP POP POP JUMP JUMPDEST PUSH1 0x40 MLOAD DUP1 PUSH1 0xA0 ADD PUSH1 0x40 MSTORE DUP1 PUSH0 PUSH20 0xFFFFFFFFFFFFFFFFFFFFFFFFFFFFFFFFFFFFFFFF AND DUP2 MSTORE PUSH1 0x20 ADD PUSH0 DUP2 MSTORE PUSH1 0x20 ADD PUSH0 DUP2 MSTORE PUSH1 0x20 ADD PUSH0 DUP2 MSTORE PUSH1 0x20 ADD PUSH0 DUP2 MSTORE POP SWAP1 JUMP JUMPDEST PUSH0 DUP1 REVERT JUMPDEST PUSH0 DUP2 SWAP1 POP SWAP2 SWAP1 POP JUMP JUMPDEST PUSH2 0xAD1 DUP2 PUSH2 0xABF JUMP JUMPDEST DUP2 EQ PUSH2 0xADB JUMPI PUSH0 DUP1 REVERT JUMPDEST POP JUMP JUMPDEST PUSH0 DUP2 CALLDATALOAD SWAP1 POP PUSH2 0xAEC DUP2 PUSH2 0xAC8 JUMP JUMPDEST SWAP3 SWAP2 POP POP JUMP JUMPDEST PUSH0 PUSH1 0x20 DUP3 DUP5 SUB SLT ISZERO PUSH2 0xB07 JUMPI PUSH2 0xB06 PUSH2 0xABB JUMP JUMPDEST JUMPDEST PUSH0 PUSH2 0xB14 DUP5 DUP3 DUP6 ADD PUSH2 0xADE JUMP JUMPDEST SWAP2 POP POP SWAP3 SWAP2 POP POP JUMP JUMPDEST PUSH0 PUSH20 0xFFFFFFFFFFFFFFFFFFFFFFFFFFFFFFFFFFFFFFFF DUP3 AND SWAP1 POP SWAP2 SWAP1 POP JUMP JUMPDEST PUSH0 PUSH2 0xB46 DUP3 PUSH2 0xB1D JUMP JUMPDEST SWAP1 POP SWAP2 SWAP1 POP JUMP JUMPDEST PUSH2 0xB56 DUP2 PUSH2 0xB3C JUMP JUMPDEST DUP3 MSTORE POP POP JUMP JUMPDEST PUSH2 0xB65 DUP2 PUSH2 0xABF JUMP JUMPDEST DUP3 MSTORE POP POP JUMP JUMPDEST PUSH0 PUSH1 0xA0 DUP3 ADD SWAP1 POP PUSH2 0xB7E PUSH0 DUP4 ADD DUP9 PUSH2 0xB4D JUMP JUMPDEST PUSH2 0xB8B PUSH1 0x20 DUP4 ADD DUP8 PUSH2 0xB5C JUMP JUMPDEST PUSH2 0xB98 PUSH1 0x40 DUP4 ADD DUP7 PUSH2 0xB5C JUMP JUMPDEST PUSH2 0xBA5 PUSH1 0x60 DUP4 ADD DUP6 PUSH2 0xB5C JUMP JUMPDEST PUSH2 0xBB2 PUSH1 0x80 DUP4 ADD DUP5 PUSH2 0xB5C JUMP JUMPDEST SWAP7 SWAP6 POP POP POP POP POP POP JUMP JUMPDEST PUSH0 PUSH1 0x20 DUP3 ADD SWAP1 POP PUSH2 0xBCF PUSH0 DUP4 ADD DUP5 PUSH2 0xB5C JUMP JUMPDEST SWAP3 SWAP2 POP POP JUMP JUMPDEST PUSH2 0xBDE DUP2 PUSH2 0xB3C JUMP JUMPDEST DUP2 EQ PUSH2 0xBE8 JUMPI PUSH0 DUP1 REVERT JUMPDEST POP JUMP JUMPDEST PUSH0 DUP2 CALLDATALOAD SWAP1 POP PUSH2 0xBF9 DUP2 PUSH2 0xBD5 JUMP JUMPDEST SWAP3 SWAP2 POP POP JUMP JUMPDEST PUSH0 PUSH1 0x20 DUP3 DUP5 SUB SLT ISZERO PUSH2 0xC14 JUMPI PUSH2 0xC13 PUSH2 0xABB JUMP JUMPDEST JUMPDEST PUSH0 PUSH2 0xC21 DUP5 DUP3 DUP6 ADD PUSH2 0xBEB JUMP JUMPDEST SWAP2 POP POP SWAP3 SWAP2 POP POP JUMP JUMPDEST PUSH0 PUSH1 0x20 DUP3 ADD SWAP1 POP PUSH2 0xC3D PUSH0 DUP4 ADD DUP5 PUSH2 0xB4D JUMP JUMPDEST SWAP3 SWAP2 POP POP JUMP JUMPDEST PUSH0 DUP2 MLOAD SWAP1 POP SWAP2 SWAP1 POP JUMP JUMPDEST PUSH0 DUP3 DUP3 MSTORE PUSH1 0x20 DUP3 ADD SWAP1 POP SWAP3 SWAP2 POP POP JUMP JUMPDEST PUSH0 DUP2 SWAP1 POP PUSH1 0x20 DUP3 ADD SWAP1 POP SWAP2 SWAP1 POP JUMP JUMPDEST PUSH2 0xC75 DUP2 PUSH2 0xB3C JUMP JUMPDEST DUP3 MSTORE POP POP JUMP JUMPDEST PUSH2 0xC84 DUP2 PUSH2 0xABF JUMP JUMPDEST DUP3 MSTORE POP POP JUMP JUMPDEST PUSH1 0xA0 DUP3 ADD PUSH0 DUP3 ADD MLOAD PUSH2 0xC9E PUSH0 DUP6 ADD DUP3 PUSH2 0xC6C JUMP JUMPDEST POP PUSH1 0x20 DUP3 ADD MLOAD PUSH2 0xCB1 PUSH1 0x20 DUP6 ADD DUP3 PUSH2 0xC7B JUMP JUMPDEST POP PUSH1 0x40 DUP3 ADD MLOAD PUSH2 0xCC4 PUSH1 0x40 DUP6 ADD DUP3 PUSH2 0xC7B JUMP JUMPDEST POP PUSH1 0x60 DUP3 ADD MLOAD PUSH2 0xCD7 PUSH1 0x60 DUP6 ADD DUP3 PUSH2 0xC7B JUMP JUMPDEST POP PUSH1 0x80 DUP3 ADD MLOAD PUSH2 0xCEA PUSH1 0x80 DUP6 ADD DUP3 PUSH2 0xC7B JUMP JUMPDEST POP POP POP POP JUMP JUMPDEST PUSH0 PUSH2 0xCFB DUP4 DUP4 PUSH2 0xC8A JUMP JUMPDEST PUSH1 0xA0 DUP4 ADD SWAP1 POP SWAP3 SWAP2 POP POP JUMP JUMPDEST PUSH0 PUSH1 0x20 DUP3 ADD SWAP1 POP SWAP2 SWAP1 POP JUMP JUMPDEST PUSH0 PUSH2 0xD1D DUP3 PUSH2 0xC43 JUMP JUMPDEST PUSH2 0xD27 DUP2 DUP6 PUSH2 0xC4D JUMP JUMPDEST SWAP4 POP PUSH2 0xD32 DUP4 PUSH2 0xC5D JUMP JUMPDEST DUP1 PUSH0 JUMPDEST DUP4 DUP2 LT ISZERO PUSH2 0xD62 JUMPI DUP2 MLOAD PUSH2 0xD49 DUP9 DUP3 PUSH2 0xCF0 JUMP JUMPDEST SWAP8 POP PUSH2 0xD54 DUP4 PUSH2 0xD07 JUMP JUMPDEST SWAP3 POP POP PUSH1 0x1 DUP2 ADD SWAP1 POP PUSH2 0xD35 JUMP JUMPDEST POP DUP6 SWAP4 POP POP POP POP SWAP3 SWAP2 POP POP JUMP JUMPDEST PUSH0 PUSH1 0x20 DUP3 ADD SWAP1 POP DUP2 DUP2 SUB PUSH0 DUP4 ADD MSTORE PUSH2 0xD87 DUP2 DUP5 PUSH2 0xD13 JUMP JUMPDEST SWAP1 POP SWAP3 SWAP2 POP POP JUMP JUMPDEST PUSH0 DUP1 PUSH0 PUSH1 0x60 DUP5 DUP7 SUB SLT ISZERO PUSH2 0xDA6 JUMPI PUSH2 0xDA5 PUSH2 0xABB JUMP JUMPDEST JUMPDEST PUSH0 PUSH2 0xDB3 DUP7 DUP3 DUP8 ADD PUSH2 0xADE JUMP JUMPDEST SWAP4 POP POP PUSH1 0x20 PUSH2 0xDC4 DUP7 DUP3 DUP8 ADD PUSH2 0xADE JUMP JUMPDEST SWAP3 POP POP PUSH1 0x40 PUSH2 0xDD5 DUP7 DUP3 DUP8 ADD PUSH2 0xADE JUMP JUMPDEST SWAP2 POP POP SWAP3 POP SWAP3 POP SWAP3 JUMP JUMPDEST PUSH0 DUP3 DUP3 MSTORE PUSH1 0x20 DUP3 ADD SWAP1 POP SWAP3 SWAP2 POP POP JUMP JUMPDEST PUSH32 0x496E76616C696420696E64657800000000000000000000000000000000000000 PUSH0 DUP3 ADD MSTORE POP JUMP JUMPDEST PUSH0 PUSH2 0xE23 PUSH1 0xD DUP4 PUSH2 0xDDF JUMP JUMPDEST SWAP2 POP PUSH2 0xE2E DUP3 PUSH2 0xDEF JUMP JUMPDEST PUSH1 0x20 DUP3 ADD SWAP1 POP SWAP2 SWAP1 POP JUMP JUMPDEST PUSH0 PUSH1 0x20 DUP3 ADD SWAP1 POP DUP2 DUP2 SUB PUSH0 DUP4 ADD MSTORE PUSH2 0xE50 DUP2 PUSH2 0xE17 JUMP JUMPDEST SWAP1 POP SWAP2 SWAP1 POP JUMP JUMPDEST PUSH32 0x4E487B7100000000000000000000000000000000000000000000000000000000 PUSH0 MSTORE PUSH1 0x32 PUSH1 0x4 MSTORE PUSH1 0x24 PUSH0 REVERT JUMPDEST PUSH32 0x4F6E6C79206F776E65722063616E207769746864726177000000000000000000 PUSH0 DUP3 ADD MSTORE POP JUMP JUMPDEST PUSH0 PUSH2 0xEB8 PUSH1 0x17 DUP4 PUSH2 0xDDF JUMP JUMPDEST SWAP2 POP PUSH2 0xEC3 DUP3 PUSH2 0xE84 JUMP JUMPDEST PUSH1 0x20 DUP3 ADD SWAP1 POP SWAP2 SWAP1 POP JUMP JUMPDEST PUSH0 PUSH1 0x20 DUP3 ADD SWAP1 POP DUP2 DUP2 SUB PUSH0 DUP4 ADD MSTORE PUSH2 0xEE5 DUP2 PUSH2 0xEAC JUMP JUMPDEST SWAP1 POP SWAP2 SWAP1 POP JUMP JUMPDEST PUSH32 0x4E6F206665657320746F20776974686472617700000000000000000000000000 PUSH0 DUP3 ADD MSTORE POP JUMP JUMPDEST PUSH0 PUSH2 0xF20 PUSH1 0x13 DUP4 PUSH2 0xDDF JUMP JUMPDEST SWAP2 POP PUSH2 0xF2B DUP3 PUSH2 0xEEC JUMP JUMPDEST PUSH1 0x20 DUP3 ADD SWAP1 POP SWAP2 SWAP1 POP JUMP JUMPDEST PUSH0 PUSH1 0x20 DUP3 ADD SWAP1 POP DUP2 DUP2 SUB PUSH0 DUP4 ADD MSTORE PUSH2 0xF4D DUP2 PUSH2 0xF14 JUMP JUMPDEST SWAP1 POP SWAP2 SWAP1 POP JUMP JUMPDEST PUSH32 0x4E487B7100000000000000000000000000000000000000000000000000000000 PUSH0 MSTORE PUSH1 0x41 PUSH1 0x4 MSTORE PUSH1 0x24 PUSH0 REVERT JUMPDEST PUSH32 0x4E487B7100000000000000000000000000000000000000000000000000000000 PUSH0 MSTORE PUSH1 0x11 PUSH1 0x4 MSTORE PUSH1 0x24 PUSH0 REVERT JUMPDEST PUSH0 PUSH2 0xFB8 DUP3 PUSH2 0xABF JUMP JUMPDEST SWAP2 POP PUSH2 0xFC3 DUP4 PUSH2 0xABF JUMP JUMPDEST SWAP3 POP DUP3 DUP3 SUB SWAP1 POP DUP2 DUP2 GT ISZERO PUSH2 0xFDB JUMPI PUSH2 0xFDA PUSH2 0xF81 JUMP JUMPDEST JUMPDEST SWAP3 SWAP2 POP POP JUMP JUMPDEST PUSH32 0x5375626D69742066656520697320302E303030312052495455414C0000000000 PUSH0 DUP3 ADD MSTORE POP JUMP JUMPDEST PUSH0 PUSH2 0x1015 PUSH1 0x1B DUP4 PUSH2 0xDDF JUMP JUMPDEST SWAP2 POP PUSH2 0x1020 DUP3 PUSH2 0xFE1 JUMP JUMPDEST PUSH1 0x20 DUP3 ADD SWAP1 POP SWAP2 SWAP1 POP JUMP JUMPDEST PUSH0 PUSH1 0x20 DUP3 ADD SWAP1 POP DUP2 DUP2 SUB PUSH0 DUP4 ADD MSTORE PUSH2 0x1042 DUP2 PUSH2 0x1009 JUMP JUMPDEST SWAP1 POP SWAP2 SWAP1 POP JUMP JUMPDEST PUSH32 0x53636F7265206D7573742062652067726561746572207468616E203000000000 PUSH0 DUP3 ADD MSTORE POP JUMP JUMPDEST PUSH0 PUSH2 0x107D PUSH1 0x1C DUP4 PUSH2 0xDDF JUMP JUMPDEST SWAP2 POP PUSH2 0x1088 DUP3 PUSH2 0x1049 JUMP JUMPDEST PUSH1 0x20 DUP3 ADD SWAP1 POP SWAP2 SWAP1 POP JUMP JUMPDEST PUSH0 PUSH1 0x20 DUP3 ADD SWAP1 POP DUP2 DUP2 SUB PUSH0 DUP4 ADD MSTORE PUSH2 0x10AA DUP2 PUSH2 0x1071 JUMP JUMPDEST SWAP1 POP SWAP2 SWAP1 POP JUMP JUMPDEST PUSH32 0x4C6576656C206D7573742062652067726561746572207468616E203000000000 PUSH0 DUP3 ADD MSTORE POP JUMP JUMPDEST PUSH0 PUSH2 0x10E5 PUSH1 0x1C DUP4 PUSH2 0xDDF JUMP JUMPDEST SWAP2 POP PUSH2 0x10F0 DUP3 PUSH2 0x10B1 JUMP JUMPDEST PUSH1 0x20 DUP3 ADD SWAP1 POP SWAP2 SWAP1 POP JUMP JUMPDEST PUSH0 PUSH1 0x20 DUP3 ADD SWAP1 POP DUP2 DUP2 SUB PUSH0 DUP4 ADD MSTORE PUSH2 0x1112 DUP2 PUSH2 0x10D9 JUMP JUMPDEST SWAP1 POP SWAP2 SWAP1 POP JUMP JUMPDEST PUSH32 0x436F727265637420636F756E74206D7573742062652066726F6D203020746F20 PUSH0 DUP3 ADD MSTORE PUSH32 0x3130000000000000000000000000000000000000000000000000000000000000 PUSH1 0x20 DUP3 ADD MSTORE POP JUMP JUMPDEST PUSH0 PUSH2 0x1173 PUSH1 0x22 DUP4 PUSH2 0xDDF JUMP JUMPDEST SWAP2 POP PUSH2 0x117E DUP3 PUSH2 0x1119 JUMP JUMPDEST PUSH1 0x40 DUP3 ADD SWAP1 POP SWAP2 SWAP1 POP JUMP JUMPDEST PUSH0 PUSH1 0x20 DUP3 ADD SWAP1 POP DUP2 DUP2 SUB PUSH0 DUP4 ADD MSTORE PUSH2 0x11A0 DUP2 PUSH2 0x1167 JUMP JUMPDEST SWAP1 POP SWAP2 SWAP1 POP JUMP JUMPDEST PUSH0 PUSH2 0x11B1 DUP3 PUSH2 0xABF JUMP JUMPDEST SWAP2 POP PUSH2 0x11BC DUP4 PUSH2 0xABF JUMP JUMPDEST SWAP3 POP DUP3 DUP3 ADD SWAP1 POP DUP1 DUP3 GT ISZERO PUSH2 0x11D4 JUMPI PUSH2 0x11D3 PUSH2 0xF81 JUMP JUMPDEST JUMPDEST SWAP3 SWAP2 POP POP JUMP JUMPDEST PUSH0 PUSH1 0x80 DUP3 ADD SWAP1 POP PUSH2 0x11ED PUSH0 DUP4 ADD DUP8 PUSH2 0xB5C JUMP JUMPDEST PUSH2 0x11FA PUSH1 0x20 DUP4 ADD DUP7 PUSH2 0xB5C JUMP JUMPDEST PUSH2 0x1207 PUSH1 0x40 DUP4 ADD DUP6 PUSH2 0xB5C JUMP JUMPDEST PUSH2 0x1214 PUSH1 0x60 DUP4 ADD DUP5 PUSH2 0xB5C JUMP JUMPDEST SWAP6 SWAP5 POP POP POP POP POP JUMP INVALID LOG2 PUSH5 0x6970667358 0x22 SLT KECCAK256 0xBD 0xAB DUP2 DUP9 0xE0 OR 0xEF PUSH15 0xD1B14F099808E13A68D5DC1B2BD50F 0xCD MUL 0xB5 0xD7 CREATE2 SHR SUB XOR BALANCE PUSH5 0x736F6C6343 STOP ADDMOD XOR STOP CALLER "},"methodIdentifiers":{"SUBMIT_FEE()":"3bb45586","bestLevel(address)":"cc119a91","bestScore(address)":"dc0c695f","getLeaderboardEntry(uint256)":"242bb9fc","getLeaderboardLength()":"ab486607","getRecentScores(uint256)":"a83780d8","owner()":"8da5cb5b","submitScore(uint256,uint256,uint256)":"ef2c25a4","totalSubmissions(address)":"6af96877","withdrawFees()":"476343ee"}}}}}